:020000040000FA
:100000000C947A000C94A2000C94A2000C94A20010
:100010000C94A2000C94A2000C945A150C94A2000B
:100020000C94A2000C94A2000C94A2000C94A200C8
:100030000C94A2000C94A2000C94A2000C94A200B8
:100040000C94B8140C94A2000C9428150C9402156E
:100050000C94A2000C94A2000C94A2000C94A20098
:100060000C94A2000C94A200005EBCE2613FDD8310
:10007000C29C7E20A3FD1F41009D23BE46DB65F888
:100080008C11AF32CA57E9747C3C3E5E2B3D3F2F4A
:100090005B5D3B2C2A225C0000000000240027004E
:1000A0002A0000000000250028002B0000000008A6
:1000B000000201000003040700000000000000002F
:1000C00000000000230026002900040404040404A6
:1000D00004040202020202020303030303030102F7
:1000E00004081020408001020408102001020408C6
:1000F0001020711511241FBECFEFD8E0DEBFCDBF99
:1001000011E0A0E0B1E0EEEBFAE302C005900D9241
:10011000A23CB107D9F724E0A2ECB1E001C01D92E6
:10012000AD3FB207E1F710E0CAE7D0E004C0219785
:10013000FE010E94071CC937D107C9F70E941A1691
:100140000C945D1D0C9400000895CF93DF93FC0187
:10015000828193819093C0048093BF0484819581B0
:10016000A681B7818093C1049093C204A093C30475
:10017000B093C40480859185A285B3858093C5041E
:100180009093C604A093C704B093C804DF011C96E3
:10019000CF014996C9ECD4E02D912993A817B9074E
:1001A000D9F7818D928D9093D7048093D6048DEBEF
:1001B00094E0DF91CF91089590E0FC01E455FF4F6A
:1001C0002491FC01E252FF4F3491FC01E653FF4FB2
:1001D000E491EE23C9F0222339F0233001F1A8F491
:1001E000213019F1223029F1F0E0EE0FFF1FEE551A
:1001F000FF4FA591B4918FB7F894EC91611126C08F
:1002000030953E233C938FBF08952730A9F02830C6
:10021000C9F0243049F7809180008F7D03C0809120
:1002200080008F7780938000DFCF84B58F7784BD87
:10023000DBCF84B58F7DFBCF8091B0008F7780932B
:10024000B000D2CF8091B0008F7DF9CF3E2BDACFB6
:10025000CF93DF9390E0FC01E252FF4F249186534D
:100260009F4FFC0184918823D1F090E0880F991F63
:10027000FC01E856FF4FA591B491FC01EE55FF4FEC
:10028000C591D49161110EC09FB7F8948C91E22F63
:10029000E0958E238C932881E223E8839FBFDF9132
:1002A000CF9108958FB7F894EC91E22BEC938FBF28
:1002B000F6CF3FB7F8948091CF019091D001A091F3
:1002C000D101B091D20126B5A89B05C02F3F19F0EE
:1002D0000196A11DB11D3FBFBA2FA92F982F8827C6
:1002E000BC01CD01620F711D811D911D42E0660FA1
:1002F000771F881F991F4A95D1F708958F929F9273
:10030000AF92BF92CF92DF92EF92FF924B015C01CE
:100310000E9459016B017C010E9459016C197D09F1
:100320008E099F09683E734081059105A8F321E07D
:10033000821A9108A108B10888EEC80E83E0D81E81
:10034000E11CF11C81149104A104B10429F7FF9070
:10035000EF90DF90CF90BF90AF909F908F900895D7
:100360002FB7F8946091CB017091CC018091CD01B1
:100370009091CE012FBF0895AF92BF92CF92DF929E
:10038000EF92FF920F931F93CF93DF936C017B014A
:100390008B01040F151FEB015E01AE18BF08C017DB
:1003A000D10759F06991D601ED91FC910190F0814E
:1003B000E02DC6010995892B79F7C501DF91CF9111
:1003C0001F910F91FF90EF90DF90CF90BF90AF9073
:1003D0000895FC01538D448D252F30E0842F90E04B
:1003E000821B930B541710F0CF9608950197089530
:1003F000FC01918D828D981761F0A28DAE0FBF2FF9
:10040000B11D5D968C91928D9F5F9F73928F90E04E
:1004100008958FEF9FEF0895FC01918D828D9817BD
:1004200031F0828DE80FF11D858D90E008958FEFFA
:100430009FEF0895FC01918D228D892F90E0805CC3
:100440009F4F821B91098F739927089585ED93E043
:100450000E941A0221E0892B09F420E0822F0895DE
:1004600080E090E0892B29F00E94260281110C94F3
:1004700000000895FC01A48DA80FB92FB11DA35A47
:10048000BF4F2C91848D90E001968F739927848FB4
:10049000A689B7892C93A089B1898C9183708064D7
:1004A0008C93938D848D981306C00288F389E02D78
:1004B00080818F7D80830895EF92FF920F931F9329
:1004C000CF93DF93EC0181E0888F9B8D8C8D981307
:1004D0001AC0E889F989808185FF15C09FB7F89413
:1004E000EE89FF896083E889F9898081837080645F
:1004F00080839FBF81E090E0DF91CF911F910F91AA
:10050000FF90EF900895F62E0B8D10E00F5F1F4FB8
:100510000F731127E02E8C8D8E110CC00FB607FCC7
:10052000FACFE889F989808185FFF5CFCE010E9455
:100530003A02F1CFEB8DEC0FFD2FF11DE35AFF4F87
:10054000F0829FB7F8940B8FEA89FB8980818062E3
:10055000CFCFCF93DF93EC01888D8823B9F0AA89A0
:10056000BB89E889F9898C9185FD03C0808186FD6E
:100570000DC00FB607FCF7CF8C9185FFF2CF8081BD
:1005800085FFEDCFCE010E943A02E9CFDF91CF91F6
:1005900008958FB7F8948091C3018FBF089561E0EB
:1005A000FC0184810E94DC008091C20181111092C3
:1005B000C20108958EBD00000DB407FEFDCF8EB5BB
:1005C00008958FEF0C94DA020F931F93CF93DF936C
:1005D000EC010E94B0018B010E94E1028F3F69F0A3
:1005E0000E94B001601B710B6C177D07A8F380E0BF
:1005F000DF91CF911F910F91089581E0F9CF8CBDCC
:100600009DBD0895CF93DF93EC018091C2018111CC
:1006100009C081E08093C2018091720490917304BB
:100620000E94FF0260E08C81DF91CF910C94DC008E
:100630008F929F92AF92BF92FF920F931F93CF938F
:10064000DF93EC01F62E49015A018E81882389F04F
:100650008F8198859C012F5F3F4F38872F83823091
:10066000924018F40E94E102F3CFCE010E94CF0223
:100670001E82CE010E9402038CE291E00E94E402FD
:100680008F2D80640E94DA0208E110E0D501C401D8
:10069000002E04C0B695A795979587950A94D2F732
:1006A0000E94DA0208501109083F8FEF180771F70E
:1006B00085E9FF2021F028E087E8F2128FEF0E9401
:1006C000DA0210E00E94E1028A8787FF04C01F3F20
:1006D00011F01F5FF7CFDF91CF911F910F91FF9026
:1006E000BF90AF909F908F900895AF92BF92CF929E
:1006F000DF92EF92FF920F931F93CF93DF93EC0162
:100700006901C801820F931F8130924050F58E819C
:10071000882379F088819981AA81BB818417950704
:10072000A607B70731F48F819885C816D90608F057
:1007300042C0488359836A837B838B85833039F039
:1007400089E0440F551F661F771F8A95D1F79A01DC
:10075000AB0161E1CE010E941803882389F083E098
:100760008D83CE010E94CF0280E0DF91CF911F9157
:100770000F91FF90EF90DF90CF90BF90AF900895D2
:100780000E94B0015B010E94E1028A878F3F69F4F9
:100790000E94B0016A197B096D327140A0F38FE0AD
:1007A0008D83CE010E94CF02DCCF8E3F89F4188664
:1007B0001F8281E08E838F8198858C159D0550F472
:1007C0000E94E1028F819885019698878F83F3CFED
:1007D0008DE0E6CF6701E00EF11E0E94E102F60116
:1007E00081936F01EE15FF05C1F78F819885080F82
:1007F000191F18870F838985882319F00115124066
:10080000A0F08E81882389F08F8198859C012F5FCD
:100810003F4F38872F838230924018F40E94E102C4
:10082000F3CFCE010E94CF021E8281E09ECFEF92D5
:10083000FF920F931F93CF93DF93EC01790182E135
:10084000411551056105710599F08B85833039F0AB
:1008500089E0440F551F661F771F8A95D1F79A01CB
:10086000AB0168E1CE010E941803882319F084E0EF
:100870008D8330C08EEF0E94DA0287018EEFF81A66
:10088000F80181918F010E94DA020E151F05C1F750
:100890008FEF0E94DA028FEF0E94DA020E94E102DB
:1008A0008A878F71853089F488E592E00E94E4029E
:1008B0008823A9F020E030E0A9016DE0CE010E947C
:1008C0001803882371F084E1D3CF81E18D83CE01B9
:1008D0000E94CF02CE010E94CF0280E00AC085E1D3
:1008E000C7CF0E94E1028111EECFCE010E94CF025C
:1008F00081E0DF91CF911F910F91FF90EF900895CC
:10090000CF93DF938091C4018823A9F1C091D303D1
:10091000D091D403409100015091010160910201F6
:100920007091030123ED31E0CE010E941704811183
:1009300004C080E0DF91CF9108954091C5015091AE
:10094000C6016091C7017091C8014115510561054B
:10095000710579F023ED31E0CE010E941704882360
:1009600041F31092C5011092C6011092C701109276
:10097000C8011092C40181E0DDCF8F929F92AF92A7
:10098000BF92EF92FF920F931F93CF934B015C01A5
:10099000C42F8091000190910101A0910201B091BA
:1009A000030188159905AA05BB0549F10E94800439
:1009B00081110BC080E0CF911F910F91FF90EF90BC
:1009C000BF90AF909F908F90089583EDE82E81E0C7
:1009D000F82E00E012E030E020E0B501A4018091A3
:1009E000D3039091D4030E947503882319F3809256
:1009F000000190920101A0920201B0920301409186
:100A0000C4014C2B4093C40181E0D5CF8F929F92BB
:100A1000AF92BF92CF92DF92EF92FF92CF9324E7F3
:100A200034E03093D4032093D303882309F46DC0BA
:100A300040E060E070E0CB010E94BD0481110BC07A
:100A400080E0CF91FF90EF90DF90CF90BF90AF907C
:100A50009F908F900895809191038F7789F780916F
:100A60009D0390919E03A0919F03B091A0038436B3
:100A70009105A105B10520F3C0909903D0909A0388
:100A8000E0909B03F0909C03C114D104E104F104B5
:100A9000B9F240E0C701B6010E94BD04882381F28B
:100AA0008091DE019091DF018115924049F6A0917D
:100AB000E301AA2329F26091E1017091E20161153D
:100AC000710509F4BDCF2091E001222309F4B8CFCC
:100AD000A09392042093840490E080E030E0E1E071
:100AE000F0E0C82FAF01082E02C0440F551F0A9432
:100AF000E2F72417350769F041E0480F0196893085
:100B0000910579F740938D049BCFC12CD12C7601B0
:100B1000C0CF80938D042091E9013091EA0150E02B
:100B200040E02115310541F42091F7013091F801A1
:100B30004091F9015091FA01209385043093860485
:100B4000409387045093880446015701860E971EF0
:100B5000A11CB11C8092930490929404A0929504DD
:100B6000B0929604E091E401F091E501F0939904CC
:100B7000E0939804B0E00E94FC1BDC01CB01880DDF
:100B8000991DAA1DBB1D80939A0490939B04A0936A
:100B90009C04B0939D0425E0EE0FFF1F2A95E1F71A
:100BA000E150FE4FEF2FFF27E6958E0F9F1FA11DEF
:100BB000B11D80938E0490938F04A0939004B09302
:100BC00091048090E6019090E701B12CA12C811452
:100BD000910441F48090F3019090F401A090F5010C
:100BE000B090F601C81AD90AEA0AFB0AC80CD91C47
:100BF000EA1CFB1C04C0F694E794D794C794CA95EA
:100C0000D2F7C0928904D0928A04E0928B04F092C9
:100C10008C0485EFC8168FE0D806E104F10428F4AF
:100C20008CE08093970481E00CCF80E125EFC21621
:100C30002FEFD206E104F104A0F38091FF0190911F
:100C40000002A0910102B091020280939A04909355
:100C50009B04A0939C04B0939D0480E2E2CF4F924A
:100C60005F926F927F928F929F92AF92BF92CF923C
:100C7000DF92EF92FF920F931F93CF93DF93EC01DC
:100C8000423051056105710590F480E0DF91CF910C
:100C90001F910F91FF90EF90DF90CF90BF90AF909A
:100CA0009F908F907F906F905F904F90089589856F
:100CB0009A85AB85BC850196A11DB11D841795074A
:100CC000A607B70710F3CB88DC88ED88FE888F89EC
:100CD000803109F042C0BB27A72F962F852F4801EE
:100CE00059012A013B01C80ED91EEA1EFB1E809144
:100CF000000190910101A0910201B0910301C81679
:100D0000D906EA06FB0699F58F898031C1F5B30152
:100D1000A201552766277727440F551F4D525E4F76
:100D2000FA01918280828091C40181608093C40124
:100D30008A89823080F08D819E81AF81B8858C0D4B
:100D40009D1DAE1DBF1D8093C5019093C601A0934C
:100D5000C701B093C80181E099CFDB01CA01E7E088
:100D6000B695A79597958795EA95D1F7B8CF40E0C6
:100D7000C701B6010E94BD048111C6CF86CFB30161
:100D8000A2014F77552766277727440F551F440F39
:100D9000551F4D525E4FFA0180829182A282B3822A
:100DA000C2CF8F929F92AF92BF92CF92DF92EF927B
:100DB000FF920F931F93CF93DF93FC018185928560
:100DC000A385B4850196A11DB11D84179507A607BB
:100DD000B70770F480E0DF91CF911F910F91FF90E2
:100DE000EF90DF90CF90BF90AF909F908F9008953D
:100DF00083889488A588B6888789803189F5BB2740
:100E0000A72F962F852FE9016A017B018F01BC0175
:100E1000CD01680D791D8A1D9B1D80900001909069
:100E20000101A0900201B090030186169706A80662
:100E3000B90601F5F8018789803111F5DD24EE242A
:100E4000FF24F601EE0FFF1FED52FE4F80819181CE
:100E5000B0E0A0E088839983AA83BB8381E0BBCF05
:100E6000DB01CA01C7E0B695A79597958795CA9506
:100E7000D1F7C9CF40E00E94BD048111DBCFAACFDA
:100E8000E894C7F8DD24EE24FF24F601EE0FFF1FDF
:100E9000EE0FFF1FED52FE4F80819181A281B38141
:100EA000BF70D8CF4F925F926F927F92AF92BF92F6
:100EB000CF92DF92EF92FF920F931F93CF93DF9326
:100EC00000D000D0CDB7DEB78C0149835A836B8345
:100ED0007C835901C12CD12C7601412C82E0582E03
:100EE000612C712C49815A816B817C819E012F5F1D
:100EF0003F4FC8010E94D106882339F1F80185854A
:100F0000A301920104C0220F331F441F551F8A956D
:100F1000D2F7DA01C901C80ED91EEA1EFB1E4981AB
:100F20005A816B817C818789803111F188EF9FEF35
:100F3000AFEFBFE0481759076A077B0798F2F50142
:100F4000C082D182E282F38281E00F900F900F90F5
:100F50000F90DF91CF911F910F91FF90EF90DF9055
:100F6000CF90BF90AF907F906F905F904F9008951B
:100F700088EF9FEFA0E0B0E0DDCFCF93DF93FC01DF
:100F80002581222321F080E0DF91CF910895EC01AB
:100F900080919704803159F582E08583178A108EFD
:100FA000118E128E8091980490919904B0E0A0E087
:100FB00025E0880F991FAA1FBB1F2A95D1F7838BA5
:100FC000948BA58BB68B80E894E09C8F8B8F81E00F
:100FD0008C831E821F82188619861A861B861C86A1
:100FE0001D861E861F86188A198A1A8ACDCF8032DE
:100FF00051F683E0858340919A0450919B0460915F
:101000009C0470919D04478B508F618F728F9F015C
:101010002D5E3F4F80E894E00E9452078111D3CFAC
:10102000B2CF8F929F92AF92BF92CF92DF92EF9208
:10103000FF920F931F93CF93DF93EC018D8181116A
:101040000EC080E0DF91CF911F910F91FF90EF9044
:10105000DF90CF90BF90AF909F908F9008950B89B5
:101060001C892D893E89041715072607370748F381
:101070004A015B01823031F48A869B86AC86BD864C
:1010800081E0E0CF81149104A104B10449F41E82EF
:101090001F82188619861A861B861C861D86F0CF2D
:1010A0000A851B852C853D85EB8DFC8D858590E023
:1010B0000996B901A8014150510961097109082E29
:1010C00004C076956795579547950A94D2F77501B0
:1010D0006401E1E0CE1AD108E108F10804C0F694F9
:1010E000E794D794C7948A95D2F7C416D506E60636
:1010F000F70620F0012B022B032B11F58F89988D19
:10110000A98DBA8D8E839F83A887B9878E010A5FC8
:101110001F4FC114D104E104F10409F4ADCF4E8195
:101120005F816885798598018B8D9C8D0E94D106A1
:1011300091E0C91AD108E108F1088111EACF81CF05
:10114000C41AD50AE60AF70AE1CF3F924F925F929E
:101150006F927F928F929F92AF92BF92CF92DF92C7
:10116000EF92FF920F931F93CF93DF93CDB7DEB72C
:101170002C970FB6F894DEBF0FBECDBF5C01DC012B
:101180005B968D909C905C9716964D905D906D90BF
:101190007C901997411451046104710409F468C0EA
:1011A000BFEF4B1A5B0A6B0A7B0A312CF401818575
:1011B0009285A385B4859C01AD012F5F3F4F4F4FB2
:1011C0005F4F29873A874B875C87730162011D82D5
:1011D0001E821F821886F40181859285A385B485BD
:1011E0002D813E814F815885281739074A075B07B3
:1011F00008F056C089859A85AB85BC858C159D0500
:10120000AE05BF0550F482E0C82ED12CE12CF12CA4
:1012100092E0492E512C612C712C9E012F5F3F4F83
:10122000B701A601C4010E94D1068823C9F18981B2
:101230009A81AB81BC81892B8A2B8B2B09F12601EA
:1012400037019FEF491A590A690A790A2D813E81AF
:101250004F8158852F5F3F4F4F4F5F4F2D833E8308
:101260004F8358873FEFC31AD30AE30AF30AB3CF79
:10127000F40140805180628073803324339496CF90
:10128000C414D504E604F70409F70FEF1FEF2FEF9E
:101290003FE0B701A601C4010E942F06811119C0C9
:1012A00080E02C960FB6F894DEBF0FBECDBFDF9165
:1012B000CF911F910F91FF90EF90DF90CF90BF9053
:1012C000AF909F908F907F906F905F904F903F90E6
:1012D0000895F50146815781608571854115510555
:1012E0006105710539F097018601C4010E942F063E
:1012F0008823B1F2D5011696CD92DD92ED92FC9243
:101300001997332051F0D701C6010196A11DB11DD7
:10131000F40180839183A283B383F5018789908D43
:10132000A18DB28D892B8A2B8B2B39F4C78AD08E55
:10133000E18EF28E84818068848381E0B2CFCF9386
:10134000DF93EC018D81882389F18C8187FF2AC08E
:101350006E857F858889998941E00E94BD04882334
:1013600029F1EA8980E2E89FF0011124ED52FE4F55
:101370003097E1F08D81823040F48B899C89AD8972
:10138000BE89848F958FA68FB78F8F89988D938F05
:10139000828F8F89988DA98DBA8DB58BA48B8C8106
:1013A0008F778C83DF91CF910C94800480E0DF9164
:1013B000CF910895CF93DF93EC010E949F0988237A
:1013C00011F01D8281E0DF91CF9108952F923F921D
:1013D0004F925F926F927F928F929F92AF92BF9245
:1013E000CF92DF92EF92FF920F931F93CF93DF93F1
:1013F00000D000D0CDB7DEB78C015B011A01DC0153
:1014000015968C911597813009F0C8C014968C916F
:1014100081FFC4C082FDAEC06101D8011A964D9112
:101420005D916D917C911D97C114D10409F429C17E
:101430005B968D919C915C97FC0174802FEF270D3A
:101440002A013B0139E076946794579447943A9582
:10145000D1F7722E74207A01F1E0FF22711020C0C2
:10146000E114F104E9F416964D915D916D917C9132
:101470001997411551056105710509F098C05796F6
:101480008D919D910D90BC91A02D0097A105B10566
:1014900009F0AFC0C8010E94A508882309F47EC0E6
:1014A00080E092E08E199F0946018C159D0508F495
:1014B0004C01D8015B964D915C915C9716968D918D
:1014C0009D910D90BC91A02D0297A109B109FA013F
:1014D000258504C0880F991FAA1FBB1F2A95D2F724
:1014E0004685578560897189840F951FA61FB71F90
:1014F0009C01AD01270D311D411D511D29013A01EE
:10150000811432E0930609F07AC080910001909135
:101510000101A0910201B091030184159505A60572
:10152000B70559F48FEF9FEFDC0180930001909392
:101530000101A0930201B09303019501B301A2013F
:101540008091D3039091D4030E941704882331F132
:101550009EEFB91AC818D908F80182859385A48529
:10156000B585880D991DA11DB11D82879387A4871C
:10157000B58753CFF8014389548965897689828577
:101580009385A485B585481759076A077B0709F431
:1015900043CFC8010E94110881113ECF81E090E045
:1015A000D80113969C938E93129780E007C09E01FA
:1015B0002F5F3F4F0E94D106811102C090E077C09B
:1015C00089819A81AB81BC81F801238D348DF90129
:1015D000278948EF5FEF60E070E0203121F048EFAD
:1015E0005FEF6FEF7FE084179507A607B70708F056
:1015F00051CFF80186839783A087B18751CFE1143B
:10160000F10491F5D8011A964D915D916D917C91FF
:101610001D9753968D919D910D90BC91A02D4817CB
:1016200059076A077B0700F10E948004882309F4A8
:10163000B5CF409200015092010160920201709278
:1016400003018091C40181608093C40197012D52F0
:101650003E4FD501C901880D991DF9018E179F07CD
:1016600059F04D914193FACF41E0C301B2010E947C
:10167000BD048111EBCF92CF821B930BA80EB91E34
:1016800069CFF80183899489A589B689841795075C
:10169000A607B70738F48481438B548B658B768B10
:1016A00080688483F801848183FD18C0C1010F9094
:1016B0000F900F900F90DF91CF911F910F91FF909E
:1016C000EF90DF90CF90BF90AF909F908F907F90E2
:1016D0006F905F904F903F902F900895C8010E94A7
:1016E0009F09882309F45ACFE1CFCF93DF931F924C
:1016F000CDB7DEB7698341E050E0BE016F5F7F4F39
:101700000E94E6090F90DF91CF910895FC01DB0163
:1017100012968D919C9113979383828380E291E03E
:101720009183808314968C911497848315968C9161
:101730001597858316964D915D916D917C911997C2
:1017400046835783608771871A964D915D916D919D
:101750007C911D9742875387648775871E964D91AC
:101760005D916D917C91519746875787608B718B06
:1017700052968C915297828B53964D915D916D91BB
:101780007C915697438B548B658B768B57964D91F6
:101790005D916D917C915A97478B508F618F728FBD
:1017A0005B968D919C91948F838F08950895FC0191
:1017B000818D928D009711F00C949F090895DC01A2
:1017C0005996ED91FC913097B9F083899489A58958
:1017D000B6894285538564857585841B950BA60B58
:1017E000B70B811520E89207A105B10538F08FEFFE
:1017F0009FE7A0E0B0E0089590E080E00895CF93E7
:10180000DF93EC01E98DFA8D309749F481E090E0A7
:101810009B838A8390E080E0DF91CF9108951382CB
:101820001282898D9A8D0E94E609E98DFA8D2281B6
:101830003381232B59F7F0CFCF93DF931F92CDB78E
:10184000DEB76983DC01ED91FC910280F381E02D2C
:1018500041E050E0BE016F5F7F4F09950F90DF912F
:10186000CF9108952F923F924F925F926F927F9205
:101870008F929F92AF92BF92CF92DF92EF92FF92A0
:101880000F931F93CF93DF9300D01F92CDB7DEB796
:10189000FC018581811118C08FEF9FEF0F900F9091
:1018A0000F90DF91CF911F910F91FF90EF90DF90FC
:1018B000CF90BF90AF909F908F907F906F905F90F0
:1018C0004F903F902F900895848180FFE5CF43890A
:1018D00054896589768982859385A485B585312C5F
:1018E000212C481759076A077B0719F022242394F3
:1018F000312C6F012101CE0101963C01DF011696CA
:10190000BB83AA834114510409F4C5C0F601428582
:101910005385648575854A01F1E09F22D6015B9667
:101920008D919C915C978A019B01E9E03695279502
:1019300017950795EA95D1F71596EC91E230E9F500
:10194000FC01628D738D848D958D600F711F821FD8
:10195000931FA12C22E0B22EA818B9084A145B04E8
:1019600008F45201F601248126FD04C0A114F2E01E
:10197000BF0671F400910001109101012091020154
:1019800030910301061717072807390709F05EC0D1
:1019900040E00E94BD04882309F47ECFC4018D522B
:1019A0009E4FD3019C012A0D3B1DFC012E173F07C2
:1019B00009F46CC041914D93F9CFDC011496BC90B1
:1019C000BA94B0228114910479F4B1100DC0452B62
:1019D000462B472B69F5F6018789908DA18DB28D35
:1019E00086839783A087B187D6015B96ED91FC91A2
:1019F0005C9716966D917D918D919C91199762508F
:101A0000710981099109258504C0660F771F881F18
:101A1000991F2A95D2F70685178520893189600F8D
:101A2000711F821F931F6B0D711D811D911D91CF21
:101A3000D60116964D915D916D917C9119972A81F1
:101A40003B810E94D1068111CFCF26CF7301850142
:101A50009401AB01BC018091D3039091D4030E9407
:101A60007503882309F418CF6A0C7B1CF601828564
:101A70009385A485B5858A0D9B1DA11DB11D828707
:101A80009387A487B5874A185B083CCF281B390B7E
:101A9000620E731EEBCF2A94232809F0FDCE8981B4
:101AA00090E0FCCEFC01818D928D009711F00C949A
:101AB000320C8FEF9FEF08950F931F93CF93DF9317
:101AC000EC01898D9A8D10E000E0009799F00E945A
:101AD000320C8C010F3F100769F0898D9A8DFC0143
:101AE00042855385648575854150510961097109A5
:101AF0000E941108C801DF91CF911F910F910895A5
:101B000090E080E00895DC0180E0615090F09D91CC
:101B10009827E92FEF70F0E0E859FF4F2491E92F63
:101B2000E295EF70F0E0E858FF4FE491822F8E27A6
:101B3000ECCF0895DC012C911196ED91FC91F89475
:101B40008181822B81839281322F309593239283DE
:101B500087E090E00197F1F781818323818383E21D
:101B600090E00197F1F790817894EFECF0E03197F5
:101B7000F1F7922381E009F480E00895EF92FF925B
:101B80000F931F93CF93DF937C0108E010E0C0E038
:101B9000D1E0C7010E949A0D8111CD2BDD0F0150BC
:101BA0001109B9F78C2FDF91CF911F910F91FF9001
:101BB000EF900895FC0190810180F281E02D292FA2
:101BC000209560FF14C0F8948281822382838181F2
:101BD000892B8183A3E2B0E01197F1F78281982BE2
:101BE0009283789487ED90E00197F1F70895F89447
:101BF0008281822382838181892B8183AFEFB0E050
:101C00001197F1F78281982B928378948FE090E07E
:101C1000EBCFDF92EF92FF920F931F93CF93DF935F
:101C2000EC01D62EE42E08E010E0FF24F39461E0EE
:101C30008D2D8F2109F460E0CE010E94DA0DFF0C9A
:101C400001501109A1F7E11010C0F894E981FA815F
:101C500091818881809589238183E981FA819281AC
:101C600088818095892382837894DF91CF911F9119
:101C70000F91FF90EF90DF900895EF92FF920F93F6
:101C80001F93CF93DF938C017B0140E065E50E94B9
:101C9000090EE70188E0E80EF11C699140E0C801F7
:101CA0000E94090ECE15DF05C1F7DF91CF911F917C
:101CB0000F91FF90EF900895FC0190810180F281D7
:101CC000E02DF8948181292F2095822381837894B7
:101CD0003DE743E050E0315029F1DA011197F1F787
:101CE00080818923C1F3F894828182238283818158
:101CF000892B81837894ABE7B7E01197F1F7F894DB
:101D0000818182238183A3E1B1E01197F1F7808182
:101D1000982381E009F080E07894E3E6F6E03197DB
:101D2000F1F7089580E00895EF92FF920F931F93CB
:101D3000CF93DF937C018B01C8EDD4E08D819E8130
:101D40000E945C0EB7018D819E810E943D0E40E095
:101D50006EEB8D819E810E94090E8D819E810E9475
:101D6000BE0DF80180838D819E810E94BE0DF80119
:101D700081838D819E810E94BE0DF80182838D81B9
:101D80009E810E94BE0DF80183838D819E810E94F9
:101D9000BE0DF80184838D819E810E94BE0DF801E5
:101DA00085838D819E810E94BE0DF80186838D8181
:101DB0009E810E94BE0DF80187838D819E810E94C5
:101DC000BE0DF80180878D819E81DF91CF911F919B
:101DD0000F91FF90EF900C945C0ECF93DF93CDB7F3
:101DE000DEB729970FB6F894DEBF0FBECDBFBE0198
:101DF0006F5F7F4F0E94940E68E0CE0101960E94B3
:101E0000830D9985891309C08D818F33C1F038F412
:101E10008F31B9F0807F803F31F080E007C08F358F
:101E200021F08F37B9F78CE001C08BE029960FB60F
:101E3000F894DEBF0FBECDBFDF91CF9108958AE049
:101E4000F5CF89E0F3CF8F929F92AF92BF92CF925E
:101E5000DF92EF92FF920F931F93CF93DF93CDB753
:101E6000DEB729970FB6F894DEBF0FBECDBF7C0159
:101E7000BE016F5F7F4F0E94940E68E0CE01019615
:101E80000E94830D99858913A1C009811A819981C6
:101E9000F7018081823271F140F4803109F464C02D
:101EA00060E070E080EC9FE712C0883219F18B335C
:101EB000B9F790FDF5CFB801110F880B990B0E946F
:101EC000B31A20E030E040E85DE30E94681B2996E9
:101ED0000FB6F894DEBF0FBECDBFDF91CF911F913B
:101EE0000F91FF90EF90DF90CF90BF90AF909F90B9
:101EF0008F9008958D818F3339F198F48F3181F669
:101F0000B80193E0759567959A95E1F7072E000C57
:101F1000880B990B0E94B31A20E030E040E05FE3A9
:101F2000D4CF8F3519F08F3731F2BACFB80175950C
:101F30006795072E000C880B990B0E94B31A20E0BE
:101F400030E040E05EE3C1CFB801759567957595C7
:101F50006795072E000C880B990B0E94B31A20E09E
:101F600030E040E85EE3B1CFF8848F812F2D281B4D
:101F7000330BB901072E000C880B990B0E94B31A82
:101F80004B015C016F2D70E090E080E00E94B11A7F
:101F90009B01AC01C501B4010E94101A6B017C01C8
:101FA000B80175956795072E000C880B990B0E9458
:101FB000B31A20E030E040E85EE30E949E199B01E6
:101FC000AC01C701B6010E949F1981CF60E070E0AB
:101FD0008EEF92EC7CCFBF92CF92DF92EF92FF9286
:101FE0000F931F93CF93DF93EC01B62EC72E8D85F1
:101FF000811105C0CE010E945C0E81110EC01B86AE
:102000001D861C8680E0DF91CF911F910F91FF907C
:10201000EF90DF90CF90BF90089540E060EFCE0149
:102020000E94090E01E0E12CD12C11E0CE010E94AA
:102030009A0DF82ECE010E949A0D91E0F91218C067
:10204000813099F51134D8F2DB86D11002C081E0DD
:102050008D878B81882399F22396EB2DFC2DCF0160
:10206000089629912193E817F907D9F781E0CBCF9A
:10207000EE2DF0E0F8120FC08B851817A0F4DE01EA
:10208000AE0FBF1F13968C91802379F4F12C193079
:1020900008F41C87D12EEC0FFD1F8381902F9095A3
:1020A000892383830AC08113F1CFFE01EE0DF11D58
:1020B0008381802B8383FF24F3946F2DCE010E94B4
:1020C000DA0D1F5F000F11F4E39401E087E08E1535
:1020D00008F0ACCFB7CFCF93DF93EC01E091DD04F4
:1020E000F091DE04138615861486128611861086FA
:1020F00017821682158214821382BC018091DD043E
:102100009091DE040E94EB0F982F882341F067E046
:10211000CE010E94830D91E02F81281390E0892F3A
:10212000DF91CF910895CF92DF92EF92FF921F93AC
:10213000CF93DF93EC0180E2689FF0011124ED5210
:10214000FE4F9385917161F0842F827449F080E095
:10215000DF91CF911F91FF90EF90DF90CF90089586
:10216000142F6A8B8091000190910101A0910201CE
:10217000B09103018E879F87A88BB98BC488D588BF
:10218000F12CE12C7601DD24CC24CF8AD88EE98E87
:10219000FA8E828D938DB0E0A0E0AC01BD014C2998
:1021A0005D296E297F294F8B588F698F7A8F8385A0
:1021B0008871B1F4848D958DA68DB78D8B8B9C8B9A
:1021C000AD8BBE8B81E08D831F701C831E821F82AE
:1021D000188619861A861B861C861D8681E0B8CF54
:1021E000803109F0B4CF9E012D5E3F4F8B8D9C8DC9
:1021F0000E945207882309F4AACF84E0E4CFFB01B0
:1022000001900020E9F73197AF01461B570BDC0125
:10221000ED91FC910280F381E02D09948F929F92C1
:10222000AF92BF92EF92FF920F931F93CF93DF93E2
:10223000CDB7DEB7A1970FB6F894DEBF0FBECDBF06
:102240007C01FA01CB0119A2223008F42AE08E01A8
:102250000F5D1F4F822E912CB12CA12CBF01A50127
:1022600094010E94DA1BF901CA016A300CF5605D25
:10227000D8016E938D01232B242B252B79F790E029
:1022800080E0109721F0BD01C7010E94FF10A196C8
:102290000FB6F894DEBF0FBECDBFDF91CF911F9177
:1022A0000F91FF90EF90BF90AF909F908F90089507
:1022B000695CDECFCF93DF93BC0185ED93E00E9494
:1022C000FF10EC016AE371E085ED93E00E94FF10DE
:1022D0008C0F9D1FDF91CF9108952F923F924F92C7
:1022E0005F926F927F928F929F92AF92BF92CF92A6
:1022F000DF92EF92FF921F93CF93DF93EC016A017D
:102300007B01722EAB019601CB01B6010E94D51B59
:102310006DE371E0811126C046015701E894B7F8DA
:102320002FEF3FEF4FE75FE7C501B4010E94D51BD8
:1023300081110CC02FEF3FEF4FE75FE7C501B401FC
:102340000E940B1A61E471E0181664F02FEF3FEF62
:102350004FE75FE4C701B6010E94631B1816B4F48F
:1023600065E471E0CE01DF91CF911F91FF90EF9076
:10237000DF90CF90BF90AF909F908F907F906F90A5
:102380005F904F903F902F900C94FF102FEF3FEFF6
:102390004FE75FECC701B6010E940B1A87FDE0CF43
:1023A00020E030E0A901C701B6010E940B1A312CD0
:1023B000212C87FF0DC0E881F9810190F081E02D8B
:1023C0006DE2CE0109951C01F7FAF094F7F8F0944C
:1023D00010E060E070E080E09FE3711641F020E0E3
:1023E00030E040E251E40E94101A1F5FF6CFA701CF
:1023F00096010E949F192B013C010E94821A4B01F9
:102400005C012AE0BC01A401CE010E940E117C01F6
:10241000E20CF31C1123E1F1C501B4010E94B11AD1
:102420009B01AC01C301B2010E949E194B015C01EA
:10243000E881F9810190F081E02D6EE2CE010995ED
:10244000E80EF91E115020F120E030E040E251E4A6
:10245000C501B4010E94681B2B013C010E94821A35
:102460004B01B12CA12C2AE0B501A401CE010E94A0
:102470000E11E80EF91EC501B4010E94B11A9B01AC
:10248000AC01C301B2010E949E194B015C01DACF7D
:10249000C701DF91CF911F91FF90EF90DF90CF9018
:1024A000BF90AF909F908F907F906F905F904F9074
:1024B0003F902F9008953F924F925F926F927F923C
:1024C0008F929F92AF92BF92CF92DF92EF92FF9244
:1024D0000F931F93CF93DF93CDB7DEB72B970FB634
:1024E000F894DEBF0FBECDBF7C01FE013196CE0158
:1024F0000C966F0130E23193E817F907E1F7DA0142
:1025000030E087E09D91B92E992309F43CC09E32BA
:10251000F1F48A30C9F480E02B960FB6F894DEBF50
:102520000FBECDBFDF91CF911F910F91FF90EF9024
:10253000DF90CF90BF90AF909F908F907F906F90E3
:102540005F904F903F90089538E08AE0DBCFE8E855
:10255000F0E04491442321F031969413FACFDBCF7D
:102560008317C8F24FED490F4E35A8F64FE9490FD2
:102570004A3118F440EEB42EB90EF601E30FF11D06
:10258000B0823F5FBFCF8981803229F2322E8B012A
:10259000DB015B968D919C915C97F701948F838F03
:1025A00016961D921D921D921C921997FB01128680
:1025B000138614861586F80182859385A485B585D2
:1025C000438954896589768984179507A607B707D3
:1025D00008F04DC025E0B695A795979587952A9563
:1025E000D1F7F82FFF70AF2ED80115968C9182305D
:1025F00008F491CFC8010E94320C97FD8CCFF801EE
:1026000082859385A485B5854F96A11DB11D8287CE
:102610009387A487B587F0E2AF9EB00111246D5275
:102620007E4F6115710509F476CFDB018C9188230B
:1026300041F0853E09F061C0BB2029F0BB24B39472
:10264000BACFB1100EC0F701A28A8091000190911B
:102650000101A0910201B091030186879787A08BA9
:10266000B18BDB018C918111E9CFBB24B394832D15
:102670008271823109F04FCFBB2009F44CC0F701C1
:10268000668577858089918941E00E94BD04882311
:1026900009F441CFD70152968C91B0E28B9FC001D3
:1026A00011248D529E4F009709F435CFFC013A96C4
:1026B00026E1DF011D922A95E9F72BE0F601DC0106
:1026C00001900D922A95E1F721E238E2FC01318B6D
:1026D000208B40E058E057874687338B228B318F21
:1026E000208F578B468B0E948004882309F413CFD8
:1026F000432DD70152966C910AC04BE050E0C601C1
:102700000E94411D892B09F056CF432D6A2DC70128
:102710000E94931001CFF8018581823009F4FBCE2D
:10272000C8010E94A508882309F4F5CED8015B965C
:10273000ED91FC915C9716968D909D90AD90BC901C
:102740001997B2E08B1A9108A108B108858504C0D9
:10275000880C991CAA1CBB1C8A95D2F78685978584
:10276000A089B189880E991EAA1EBB1E84812401EE
:102770003501480E511C611C711C84149504A6047B
:10278000B70401F1E1E04E1A5108610871080E9496
:102790008004882309F4BFCEE3EDF1E0119283EDCC
:1027A00093E08E179F07D1F74092000150920101EC
:1027B00060920201709203018091C4018160809354
:1027C000C401DBCFD8015B96ED91FC91258580E0BB
:1027D00092E0A0E0B0E004C0880F991FAA1FBB1FC1
:1027E0002A95D2F7F8014389548965897689840F3F
:1027F000951FA61FB71F838B948BA58BB68BD70114
:1028000052961C9283ED91E051CFEF92FF920F937D
:102810001F93CF93DF93EC017B018A011B821A8205
:1028200088EE93E0A0E0B0E08C839D83AE83BF830D
:102830008CE291E0998388838DE190E00E941C1CDA
:102840009A8F898F009779F02DE1F701DC010190D3
:102850000D922A95E1F74CE050E0B801CE010C96BC
:102860000E944E1D188EDF91CF911F910F91FF9006
:10287000EF900895CF92DF92FF920F931F93CF9323
:10288000DF93CDB7DEB7C755D1090FB6F894DEBFD9
:102890000FBECDBF8C01F62E1C821B8280E2C82E9B
:1028A00081E0D82EDA82C9821E82CE0101960E9472
:1028B000BD07BE016F5F7F4FCE01CB960E94860B96
:1028C00019A218A2DF8ECE8E1BA221968FAD219762
:1028D000811122C0F8011382128288EE93E0A0E0F9
:1028E000B0E084839583A683B7838CE291E09183E3
:1028F0008083128E118E1486C801C95ADF4F0FB61D
:10290000F894DEBF0FBECDBFDF91CF911F910F9125
:10291000FF90DF90CF9008952F2D48EB51E0BE013E
:10292000655C7F4FCE014E960E945B12882391F228
:10293000CE01CB960E94DA098F2D8670863041F445
:1029400049A95AA96BA97CA9CE014E960E941108EB
:10295000BE01625E7F4FCE0101960E94860B48EB5E
:1029600051E0BE016F5F7F4FC8010E940514C4CFC4
:102970001F920F920FB60F9211242F933F938F93B4
:102980009F93AF93BF938091CB019091CC01A09185
:10299000CD01B091CE013091CA0123E0230F2D3734
:1029A00058F50196A11DB11D2093CA018093CB015A
:1029B0009093CC01A093CD01B093CE018091CF0133
:1029C0009091D001A091D101B091D2010196A11DA9
:1029D000B11D8093CF019093D001A093D101B0930A
:1029E000D201BF91AF919F918F913F912F910F9005
:1029F0000FBE0F901F90189526E8230F0296A11D79
:102A0000B11DD2CF1F920F920FB60F9211242F93A8
:102A10003F934F935F936F937F938F939F93AF9366
:102A2000BF93EF93FF9385ED93E00E943A02FF91ED
:102A3000EF91BF91AF919F918F917F916F915F9136
:102A40004F913F912F910F900FBE0F901F901895AF
:102A50001F920F920FB60F9211242F938F939F9373
:102A6000EF93FF93E091E503F091E6038081E0911D
:102A7000EB03F091EC0382FD1BC090818091EE038B
:102A80008F5F8F732091EF03821741F0E091EE0387
:102A9000F0E0EB52FC4F958F8093EE03FF91EF91A6
:102AA0009F918F912F910F900FBE0F901F901895AF
:102AB0008081F4CF1F920F920FB60F9211248F9343
:102AC0000FB6F894A89580916000886180936000AB
:102AD000109260000FBE8F910F900FBE0F901F904D
:102AE0001895CF92DF92EF92FF92E5EDF3E013821B
:102AF000128288EEC82E83E0D82EE12CF12CC482FD
:102B0000D582E682F7828EE091E09183808385EC26
:102B100090E09587848784EC90E09787868780ECA7
:102B200090E0918B808B81EC90E0938B828B82EC98
:102B300090E0958B848B86EC90E0978B868B118E42
:102B4000128E138E148EE2E7F4E080E5808311820A
:102B5000E4E7F4E0158216821186138682E090E0A5
:102B6000A0E0B0E084879587A687B78713A215A653
:102B700014A680E291E093A782A717A660E082E006
:102B80000E942801E0EEF0E0E491ABEEB4E0EC93BB
:102B9000ECECF0E0E491F0E0EE0FFF1FE054FF4FAB
:102BA0008591949112969C938E9311971B961C92EB
:102BB0001B971D961C921D971C961C921C971A968B
:102BC0001C921A9719961C92199718961C9218978E
:102BD00017961C92179716961C92169715961C928C
:102BE000159714961C92149713961C921397E8ED60
:102BF000F4E084EA90E0928B818BB683A583148203
:102C0000108289E0818381E082838383EDEBF4E0AD
:102C100013821282C482D582E682F7828CE291E02E
:102C200091838083128E118E1486FF90EF90DF9037
:102C3000CF900895CF93DF93CDB7DEB7A3970FB6AC
:102C4000F894DEBF0FBECDBF789484B5826084BD9A
:102C500084B5816084BD85B5826085BD85B58160A0
:102C600085BD80916E00816080936E00109281001E
:102C700080918100826080938100809181008160D9
:102C8000809381008091800081608093800080919A
:102C9000B10084608093B1008091B0008160809326
:102CA000B00080917A00846080937A0080917A00ED
:102CB000826080937A0080917A00816080937A00AC
:102CC00080917A00806880937A001092C100E09130
:102CD000E503F091E60382E08083E091E103F09167
:102CE000E2031082E091E303F091E4038FEC808330
:102CF0001092ED03E091E903F091EA0386E080830E
:102D0000E091E703F091E803808180618083E091A6
:102D1000E703F091E803808188608083E091E70316
:102D2000F091E803808180688083E091E703F0916F
:102D3000E80380818F7D808360E082E00E9428012B
:102D400061E08AE00E9428018091A304882321F099
:102D50008EE994E00E94DA0910927F0410927D04BB
:102D600010927A04109279048AE0809378040E9489
:102D7000B0018B0161E0809178040E94280161E03C
:102D8000809178040E94DC00FFB6F8948091C9011C
:102D9000811127C0E4EDF0E08491E8EEF0E0949139
:102DA000E82FF0E0EE0FFF1FE856FF4FA591B4911A
:102DB000EC91E92321F461E08AE00E94DC0061E00B
:102DC0008AE00E9428018CB580618CBD8CB580643E
:102DD0008CBD61E08DE00E94280161E08BE00E94E3
:102DE00028018091C9018F5F8093C901FFBE82E5F0
:102DF0008093720410927304809172049091730412
:102E00000E94FF024AE0F42E8FEF0E94DA02FA9449
:102E1000F110FACF84E794E00E94020320E030E052
:102E2000A90160E084E794E00E941803F82E8093E3
:102E30007E0481E0F81609F464C10E94B001601BB1
:102E4000710B613D774050F381E08093790484E712
:102E500094E00E94CF0282E691E00E945A1188E13C
:102E6000F82E99E2E92E00E010E08091DD049091C7
:102E7000DE040E945C0E40E06CEC8091DD049091D9
:102E8000DE040E94090E4091D80464E48091DD04C0
:102E90009091DE040E94090E8091DA04882389F063
:102EA0008091D9048A3009F432C28B3009F434C2DB
:102EB000893009F036C26EE570E080E090E00E9453
:102EC0007E0160E871E085ED93E00E94FF100E94B2
:102ED000B001AB01BC012AE085ED93E00E940E1128
:102EE00068E871E085ED93E00E94FF106EE871E004
:102EF00085ED93E00E94FF10CE0101960E946B10B9
:102F0000CE0101960E94230F26E636E646EE5FE3E9
:102F10000E94681B20E030E040E052E40E949F19CC
:102F2000AB01BC0122E085ED93E00E946D116AE3E4
:102F300071E085ED93E00E94FF1067E1CE010196FC
:102F40000E943A14CE0101960E94A500E091D60499
:102F5000F091D704309709F4E9C18581882309F4F9
:102F6000E5C10E94B001AB01BC012AE08DEB94E009
:102F70000E940E1168EA71E08DEB94E00E94FF1050
:102F8000CE0101960E946B10CE0101960E94230F84
:102F900026E636E646EE5FE30E94681B20E030E05E
:102FA00040E052E40E949F19AB01BC0122E08DEB8E
:102FB00094E00E946D116AE371E08DEB94E00E9451
:102FC000FF108091D6049091D704009761F00E9481
:102FD000DA098091D6049091D7040E94B81C10920F
:102FE000D7041092D60487E090E03091B100209190
:102FF000B1002B7F2093B1002091B1002D7F209351
:10300000B1002091B1002E7F2093B1002091640087
:1030100020642093640020917A002F7720937A0017
:103020002091640021602093640020916400286056
:10303000209364002091640020622093640020911A
:103040006400246020936400209164002260209337
:103050006400209164002068209364000FB6F89407
:10306000A895F09260000FBEE09260002091600091
:1030700020642093600023B7217F23BFF89423B7F7
:10308000216023BF7894889523B72E7F23BF78943F
:10309000209164002E7F2093640020917A002068A4
:1030A00020937A003093B100209164002F7B20930D
:1030B000640020916400277F2093640020916400C5
:1030C0002F7D20936400209164002B7F2093640067
:1030D000209164002D7F20936400209164002F775D
:1030E00020936400019709F080CF0115110509F4C0
:1030F000BCCE0E942602882309F4B7CE0E940000AD
:10310000B4CE2AEA31E040E050E068E084E794E0A1
:103110000E94180382FF2AC0F0927F0480917F04EE
:10312000C12CD12C7601823029F4C12CD12CE12C78
:1031300020E4F22E20E030E0A90167E384E794E088
:103140000E941803A701960169E284E794E00E94B7
:10315000180380937E048823D1F00E94B001601B85
:10316000710B613D774030F388E06FCE34E0F32E91
:103170000E94E10280937E04FA94F110F9CF8A3A1A
:1031800011F082E062CE82E080937F04C7CF80910D
:103190007F048230D1F420E030E0A9016AE384E7C3
:1031A00094E00E941803882311F086E04ECE0E941E
:1031B000E102807C803C19F483E080937F040E94CC
:1031C000E1020E94E1020E94E10284E794E00E9491
:1031D000CF0280E5809372041092730481E00E9414
:1031E0000605882309F482C08EE994E00E94BD0799
:1031F000882309F430CE89E491E00E945A1161E0FD
:10320000CE0101960E943A14CE0101960E94A500BB
:10321000E091DD04F091DE04138615861486128693
:1032200011861086178216821582148213821092DC
:10323000DC0401E0BE01645E7F4F8091DD0490916B
:10324000DE040E94EB0F882309F409CE67E0CE016B
:103250004C960E94830D9BA18913ECCF8091D804DA
:10326000811128C08091DD049091DE040E945C0EE3
:10327000BE01645E7F4F8091DD049091DE040E9468
:103280003D0E40E064EB8091DD049091DE040E94ED
:10329000090E8091DD049091DE040E949A0D182F92
:1032A0008091DD049091DE040E945C0E111102C039
:1032B0000093D804BE016F5F7F4FCE014C960E94F1
:1032C000940E1091D9048C8D8031A9F1CE014C96C9
:1032D0000E94ED0E811788F48091D9048093D9045F
:1032E0008091DC048F5F8093DC04A4CF80E00E9497
:1032F0000605882309F4AFCD77CF8C8D803111F48A
:1033000089E0ECCFCE014C960E94ED0EE7CF6CEB3E
:1033100070E080E090E0D3CD67E771E080E090E07E
:10332000CECD6EEE72E080E090E0C9CD8AEA91E009
:103330000E945A1158CE1A3078F6E2CF5058BB2767
:10334000AA270E94B6190C94291B0E941B1B38F057
:103350000E94221B20F039F49F3F19F426F40C94AC
:10336000181B0EF4E095E7FB0C94121BE92F0E944A
:103370003A1B58F3BA17620773078407950720F0C2
:1033800079F4A6F50C945C1B0EF4E0950B2EBA2F85
:10339000A02D0B01B90190010C01CA01A00111245B
:1033A000FF27591B99F0593F50F4503E68F11A1607
:1033B000F040A22F232F342F4427585FF3CF469598
:1033C00037952795A795F0405395C9F77EF41F16BA
:1033D000BA0B620B730B840BBAF09150A1F0FF0F84
:1033E000BB1F661F771F881FC2F70EC0BA0F621F70
:1033F000731F841F48F4879577956795B795F79560
:103400009E3F08F0B0CF9395880F08F09927EE0FF4
:103410009795879508950E94EE1A08F481E0089523
:103420000E94241A0C94291B0E94221B58F00E940F
:103430001B1B40F029F45F3F29F00C94121B511123
:103440000C945D1B0C94181B0E943A1B68F3992383
:10345000B1F3552391F3951B550BBB27AA27621790
:103460007307840738F09F5F5F4F220F331F441F9D
:10347000AA1FA9F335D00E2E3AF0E0E832D09150D1
:103480005040E695001CCAF72BD0FE2F29D0660FBE
:10349000771F881FBB1F261737074807AB07B0E801
:1034A00009F0BB0B802DBF01FF2793585F4F3AF007
:1034B0009E3F510578F00C94121B0C945D1B5F3FEE
:1034C000E4F3983ED4F3869577956795B795F7958D
:1034D0009F5FC9F7880F911D9695879597F9089575
:1034E000E1E0660F771F881FBB1F62177307840711
:1034F000BA0720F0621B730B840BBA0BEE1F88F720
:10350000E09508950E94421B88F09F5798F0B92FCC
:103510009927B751B0F0E1F0660F771F881F991F08
:103520001AF0BA95C9F714C0B13091F00E945C1B33
:10353000B1E008950C945C1B672F782F8827B85F43
:1035400039F0B93FCCF3869577956795B395D9F760
:103550003EF490958095709561957F4F8F4F9F4F6A
:103560000895E89409C097FB3EF490958095709576
:1035700061957F4F8F4F9F4F9923A9F0F92F96E9BF
:10358000BB279395F695879577956795B795F11134
:10359000F8CFFAF4BB0F11F460FF1BC06F5F7F4FD1
:1035A0008F4F9F4F16C0882311F096E911C07723E3
:1035B00021F09EE8872F762F05C0662371F096E8EC
:1035C000862F70E060E02AF09A95660F771F881FBB
:1035D000DAF7880F9695879597F90895990F00085F
:1035E000550FAA0BE0E8FEEF16161706E807F907D5
:1035F000C0F012161306E407F50798F0621B730B70
:10360000840B950B39F40A2661F0232B242B252BF0
:1036100021F408950A2609F4A140A6958FEF811D93
:10362000811D089597F99F6780E870E060E0089534
:103630009FEF80EC089500240A94161617061806CA
:103640000906089500240A941216130614060506A6
:103650000895092E0394000C11F4882352F0BB0F37
:1036600040F4BF2B11F460FF04C06F5F7F4F8F4F9A
:103670009F4F089557FD9058440F551F59F05F3FD5
:1036800071F04795880F97FB991F61F09F3F79F084
:1036900087950895121613061406551FF2CF469506
:1036A000F1DF08C0161617061806991FF1CF869588
:1036B0007105610508940895E894BB27662777276C
:1036C000CB0197F908950E94EE1A08F48FEF089540
:1036D0000E947B1B0C94291B0E941B1B38F00E942C
:1036E000221B20F0952311F00C94121B0C94181B34
:1036F00011240C945D1B0E943A1B70F3959FC1F33B
:10370000950F50E0551F629FF001729FBB27F00D8F
:10371000B11D639FAA27F00DB11DAA1F649F6627E4
:10372000B00DA11D661F829F2227B00DA11D621F33
:10373000739FB00DA11D621F839FA00D611D221FED
:10374000749F3327A00D611D231F849F600D211DD1
:10375000822F762F6A2F11249F5750409AF0F1F054
:1037600088234AF0EE0FFF1FBB1F661F771F881FBD
:1037700091505040A9F79E3F510580F00C94121BC8
:103780000C945D1B5F3FE4F3983ED4F386957795E8
:103790006795B795F795E7959F5FC1F7FE2B880F63
:1037A000911D9695879597F908950E94EE1A880BBA
:1037B000990B0895A1E21A2EAA1BBB1BFD010DC097
:1037C000AA1FBB1FEE1FFF1FA217B307E407F507D1
:1037D00020F0A21BB30BE40BF50B661F771F881FAD
:1037E000991F1A9469F760957095809590959B0143
:1037F000AC01BD01CF0108950E940D1CA59F900D45
:10380000B49F900DA49F800D911D11240895EE0F7B
:10381000FF1F0590F491E02D0994A29FB001B39F82
:10382000C001A39F700D811D1124911DB29F700DC9
:10383000811D1124911D08950F931F93CF93DF9342
:103840008230910510F482E090E0E091FB04F09169
:10385000FC0430E020E0B0E0A0E0309799F42115BE
:10386000310509F44AC0281B390B24303105D8F53D
:103870008A819B816115710589F1FB0193838283A4
:10388000FE0111C0408151810281138148175907FF
:10389000E0F04817590799F4109761F012960C93CD
:1038A000129713961C933296CF01DF91CF911F91FF
:1038B0000F9108950093FB041093FC04F4CF21159D
:1038C000310551F04217530738F0A901DB019A0185
:1038D000BD01DF01F801C1CFEF01F9CF9093FC04E6
:1038E0008093FB04CDCFFE01E20FF31F81939193F0
:1038F0002250310939832883D7CF2091F9043091A0
:10390000FA04232B41F420910601309107013093F2
:10391000FA042093F9042091040130910501211546
:10392000310541F42DB73EB740910801509109018E
:10393000241B350BE091F904F091FA04E217F30728
:10394000A0F42E1B3F0B2817390778F0AC014E5F0F
:103950005F4F2417350748F04E0F5F1F5093FA044E
:103960004093F904819391939FCFF0E0E0E09CCFE6
:10397000CF93DF930097E9F0FC0132971382128214
:10398000A091FB04B091FC04ED0130E020E0109721
:10399000A1F420813181820F931F2091F90430918D
:1039A000FA042817390709F061C0F093FA04E0938C
:1039B000F904DF91CF910895EA01CE17DF07E8F50A
:1039C0004A815B819E0141155105B1F7E901FB83F5
:1039D000EA8349915991C40FD51FEC17FD0761F493
:1039E000808191810296840F951FE90199838883D4
:1039F000828193819B838A83F0E0E0E012968D912F
:103A00009C9113970097B9F52D913C911197CD0199
:103A10000296820F931F2091F9043091FA0428171F
:103A2000390739F6309751F51092FC041092FB04D7
:103A3000B093FA04A093F904BCCFD383C28340812E
:103A40005181840F951FC817D90761F44E5F5F4FEE
:103A500088819981480F591F518340838A819B81B6
:103A6000938382832115310509F0B0CFF093FC04D4
:103A7000E093FB049ECFFD01DC01C0CF13821282D4
:103A8000D7CFFB01DC0104C08D910190801921F496
:103A900041505040C8F7881B990B0895FB01DC0189
:103AA0004150504048F001900D920020C9F701C0EC
:103AB0001D9241505040E0F70895F894FFCFFFFF6A
:103AC000FFFF0000FD048000000000005C02BC015C
:103AD000E901A9021A02F8010C0200000000750BAE
:103AE000BC01800DD60B000000001C0CFF0B800DEC
:103AF000D70BDF0B520D5C0D0D0A006E616E006975
:103B00006E66006F766600534420636172642069BC
:103B10007320726561647920746F207573652E005F
:103B20005344206361726420696E697469616C69D1
:103B30007A6174696F6E206661696C6564002054F7
:103B4000696D653A20002020202020002046616811
:103B500072656E686569742074656D7065726174F4
:103B60007572653A20002C006572726F72206F705A
:103B7000656E696E6720646174612E7478740000EC
:107E0000112484B714BE81FFF0D085E080938100F7
:107E100082E08093C00088E18093C10086E0809377
:107E2000C20080E18093C4008EE0C9D0259A86E02C
:107E300020E33CEF91E0309385002093840096BBD3
:107E4000B09BFECF1D9AA8958150A9F7CC24DD24C4
:107E500088248394B5E0AB2EA1E19A2EF3E0BF2EE7
:107E6000A2D0813461F49FD0082FAFD0023811F036
:107E7000013811F484E001C083E08DD089C08234E0
:107E800011F484E103C0853419F485E0A6D080C0E4
:107E9000853579F488D0E82EFF2485D0082F10E0AE
:107EA000102F00270E291F29000F111F8ED06801E7
:107EB0006FC0863521F484E090D080E0DECF843638
:107EC00009F040C070D06FD0082F6DD080E0C81688
:107ED00080E7D80618F4F601B7BEE895C0E0D1E017
:107EE00062D089930C17E1F7F0E0CF16F0E7DF06D8
:107EF00018F0F601B7BEE89568D007B600FCFDCFD4
:107F0000A601A0E0B1E02C9130E011968C91119780
:107F100090E0982F8827822B932B1296FA010C0160
:107F200087BEE89511244E5F5F4FF1E0A038BF0790
:107F300051F7F601A7BEE89507B600FCFDCF97BE46
:107F4000E89526C08437B1F42ED02DD0F82E2BD052
:107F50003CD0F601EF2C8F010F5F1F4F84911BD097
:107F6000EA94F801C1F70894C11CD11CFA94CF0C13
:107F7000D11C0EC0853739F428D08EE10CD085E9AC
:107F80000AD08FE07ACF813511F488E018D01DD067
:107F900080E101D065CF982F8091C00085FFFCCF94
:107FA0009093C60008958091C00087FFFCCF809118
:107FB000C00084FD01C0A8958091C6000895E0E648
:107FC000F0E098E1908380830895EDDF803219F02E
:107FD00088E0F5DFFFCF84E1DECF1F93182FE3DFCA
:107FE0001150E9F7F2DF1F91089580E0E8DFEE27F6
:047FF000FF270994CA
:027FFE00040479
:00000001FF
